{
  "contractName": "DigiEx",
  "abi": [
    {
      "inputs": [
        {
          "internalType": "address",
          "name": "_token",
          "type": "address"
        }
      ],
      "stateMutability": "nonpayable",
      "type": "constructor"
    },
    {
      "anonymous": false,
      "inputs": [
        {
          "indexed": true,
          "internalType": "address",
          "name": "owner",
          "type": "address"
        },
        {
          "indexed": false,
          "internalType": "string",
          "name": "name",
          "type": "string"
        },
        {
          "indexed": false,
          "internalType": "uint256",
          "name": "price",
          "type": "uint256"
        }
      ],
      "name": "ProductAdded",
      "type": "event"
    },
    {
      "anonymous": false,
      "inputs": [
        {
          "indexed": true,
          "internalType": "address",
          "name": "user",
          "type": "address"
        },
        {
          "indexed": false,
          "internalType": "address",
          "name": "owner",
          "type": "address"
        },
        {
          "indexed": false,
          "internalType": "uint256",
          "name": "price",
          "type": "uint256"
        }
      ],
      "name": "ProductPurchased",
      "type": "event"
    },
    {
      "inputs": [],
      "name": "owner",
      "outputs": [
        {
          "internalType": "address",
          "name": "",
          "type": "address"
        }
      ],
      "stateMutability": "view",
      "type": "function",
      "constant": true
    },
    {
      "inputs": [
        {
          "internalType": "address",
          "name": "",
          "type": "address"
        }
      ],
      "name": "users",
      "outputs": [
        {
          "internalType": "string",
          "name": "name",
          "type": "string"
        },
        {
          "internalType": "string",
          "name": "contact",
          "type": "string"
        },
        {
          "internalType": "bool",
          "name": "updated",
          "type": "bool"
        },
        {
          "internalType": "uint256",
          "name": "total_products",
          "type": "uint256"
        }
      ],
      "stateMutability": "view",
      "type": "function",
      "constant": true
    },
    {
      "inputs": [
        {
          "internalType": "uint256",
          "name": "percent",
          "type": "uint256"
        }
      ],
      "name": "setSecureAddPercent",
      "outputs": [],
      "stateMutability": "nonpayable",
      "type": "function"
    },
    {
      "inputs": [
        {
          "internalType": "uint256",
          "name": "_amount",
          "type": "uint256"
        }
      ],
      "name": "__percentValue",
      "outputs": [
        {
          "internalType": "uint256",
          "name": "",
          "type": "uint256"
        }
      ],
      "stateMutability": "view",
      "type": "function",
      "constant": true
    },
    {
      "inputs": [
        {
          "internalType": "string",
          "name": "name",
          "type": "string"
        },
        {
          "internalType": "string",
          "name": "desc",
          "type": "string"
        },
        {
          "internalType": "string",
          "name": "section",
          "type": "string"
        },
        {
          "internalType": "uint256",
          "name": "price",
          "type": "uint256"
        }
      ],
      "name": "addProduct",
      "outputs": [],
      "stateMutability": "nonpayable",
      "type": "function"
    },
    {
      "inputs": [
        {
          "internalType": "uint256",
          "name": "product_id",
          "type": "uint256"
        },
        {
          "internalType": "uint256",
          "name": "price",
          "type": "uint256"
        }
      ],
      "name": "updateProductPrice",
      "outputs": [],
      "stateMutability": "nonpayable",
      "type": "function"
    },
    {
      "inputs": [
        {
          "internalType": "string",
          "name": "contact",
          "type": "string"
        },
        {
          "internalType": "string",
          "name": "name",
          "type": "string"
        }
      ],
      "name": "updateUserContact",
      "outputs": [],
      "stateMutability": "nonpayable",
      "type": "function"
    },
    {
      "inputs": [
        {
          "internalType": "uint256",
          "name": "product_id",
          "type": "uint256"
        }
      ],
      "name": "buyProduct",
      "outputs": [],
      "stateMutability": "nonpayable",
      "type": "function"
    },
    {
      "inputs": [],
      "name": "totalUsers",
      "outputs": [
        {
          "internalType": "uint256",
          "name": "",
          "type": "uint256"
        }
      ],
      "stateMutability": "view",
      "type": "function",
      "constant": true
    },
    {
      "inputs": [],
      "name": "getProducts",
      "outputs": [
        {
          "components": [
            {
              "internalType": "string",
              "name": "name",
              "type": "string"
            },
            {
              "internalType": "string",
              "name": "desc",
              "type": "string"
            },
            {
              "internalType": "string",
              "name": "section",
              "type": "string"
            },
            {
              "internalType": "uint256",
              "name": "price",
              "type": "uint256"
            },
            {
              "internalType": "address",
              "name": "owner",
              "type": "address"
            },
            {
              "internalType": "address",
              "name": "reserved_by",
              "type": "address"
            }
          ],
          "internalType": "struct DigiEx.Product[]",
          "name": "",
          "type": "tuple[]"
        }
      ],
      "stateMutability": "view",
      "type": "function",
      "constant": true
    },
    {
      "inputs": [
        {
          "internalType": "uint256",
          "name": "product_id",
          "type": "uint256"
        }
      ],
      "name": "getProduct",
      "outputs": [
        {
          "components": [
            {
              "internalType": "string",
              "name": "name",
              "type": "string"
            },
            {
              "internalType": "string",
              "name": "desc",
              "type": "string"
            },
            {
              "internalType": "string",
              "name": "section",
              "type": "string"
            },
            {
              "internalType": "uint256",
              "name": "price",
              "type": "uint256"
            },
            {
              "internalType": "address",
              "name": "owner",
              "type": "address"
            },
            {
              "internalType": "address",
              "name": "reserved_by",
              "type": "address"
            }
          ],
          "internalType": "struct DigiEx.Product",
          "name": "",
          "type": "tuple"
        }
      ],
      "stateMutability": "view",
      "type": "function",
      "constant": true
    },
    {
      "inputs": [
        {
          "internalType": "address",
          "name": "userAddress",
          "type": "address"
        }
      ],
      "name": "getUser",
      "outputs": [
        {
          "components": [
            {
              "internalType": "string",
              "name": "name",
              "type": "string"
            },
            {
              "internalType": "string",
              "name": "contact",
              "type": "string"
            },
            {
              "internalType": "bool",
              "name": "updated",
              "type": "bool"
            },
            {
              "internalType": "uint256",
              "name": "total_products",
              "type": "uint256"
            },
            {
              "internalType": "uint256[]",
              "name": "products",
              "type": "uint256[]"
            }
          ],
          "internalType": "struct DigiEx.User",
          "name": "",
          "type": "tuple"
        }
      ],
      "stateMutability": "view",
      "type": "function",
      "constant": true
    }
  ],
  "bytecode": "0x608060405260056001556000600260006101000a81548173ffffffffffffffffffffffffffffffffffffffff021916908373ffffffffffffffffffffffffffffffffffffffff1602179055503480156200005857600080fd5b50604051620026cc380380620026cc83398181016040528101906200007e919062000125565b336000806101000a81548173ffffffffffffffffffffffffffffffffffffffff021916908373ffffffffffffffffffffffffffffffffffffffff16021790555080600360006101000a81548173ffffffffffffffffffffffffffffffffffffffff021916908373ffffffffffffffffffffffffffffffffffffffff1602179055506000600681905550506200019f565b6000815190506200011f8162000185565b92915050565b6000602082840312156200013857600080fd5b600062000148848285016200010e565b91505092915050565b60006200015e8262000165565b9050919050565b600073ffffffffffffffffffffffffffffffffffffffff82169050919050565b620001908162000151565b81146200019c57600080fd5b50565b61251d80620001af6000396000f3fe608060405234801561001057600080fd5b50600436106100b45760003560e01c80639c3bddb2116100715780639c3bddb21461018b578063a87430ba146101a7578063b9db15b4146101da578063bff1f9e11461020a578063c29b2f2014610228578063d43ca17714610246576100b4565b80635d6b601d146100b9578063621ec9cd146100e95780636f77926b146101055780638165fed5146101355780638642269e146101515780638da5cb5b1461016d575b600080fd5b6100d360048036038101906100ce9190611970565b610262565b6040516100e091906120d4565b60405180910390f35b61010360048036038101906100fe9190611859565b610285565b005b61011f600480360381019061011a9190611807565b6103a6565b60405161012c91906120b2565b60405180910390f35b61014f600480360381019061014a91906118c5565b6105a0565b005b61016b60048036038101906101669190611970565b6107b8565b005b610175610a14565b6040516101829190611ec7565b60405180910390f35b6101a560048036038101906101a091906119c2565b610a38565b005b6101c160048036038101906101bc9190611807565b610bcf565b6040516101d19493929190611f8d565b60405180910390f35b6101f460048036038101906101ef9190611970565b610d1c565b6040516102019190612090565b60405180910390f35b610212610fea565b60405161021f91906120d4565b60405180910390f35b610230610ff4565b60405161023d9190611f6b565b60405180910390f35b610260600480360381019061025b9190611970565b6112bf565b005b60006064826001546102749190612276565b61027e9190612245565b9050919050565b600260009054906101000a900473ffffffffffffffffffffffffffffffffffffffff1673ffffffffffffffffffffffffffffffffffffffff163373ffffffffffffffffffffffffffffffffffffffff1614156102e057600080fd5b6000600560003373ffffffffffffffffffffffffffffffffffffffff1673ffffffffffffffffffffffffffffffffffffffff16815260200190815260200160002090508281600101908051906020019061033b929190611615565b5081816000019080519060200190610354929190611615565b508060020160009054906101000a900460ff16610384576006600081548092919061037e9061238c565b91905055505b60018160020160006101000a81548160ff021916908315150217905550505050565b6103ae61169b565b600560008373ffffffffffffffffffffffffffffffffffffffff1673ffffffffffffffffffffffffffffffffffffffff1681526020019081526020016000206040518060a00160405290816000820180546104089061235a565b80601f01602080910402602001604051908101604052809291908181526020018280546104349061235a565b80156104815780601f1061045657610100808354040283529160200191610481565b820191906000526020600020905b81548152906001019060200180831161046457829003601f168201915b5050505050815260200160018201805461049a9061235a565b80601f01602080910402602001604051908101604052809291908181526020018280546104c69061235a565b80156105135780601f106104e857610100808354040283529160200191610513565b820191906000526020600020905b8154815290600101906020018083116104f657829003601f168201915b505050505081526020016002820160009054906101000a900460ff16151515158152602001600382015481526020016004820180548060200260200160405190810160405280929190818152602001828054801561059057602002820191906000526020600020905b81548152602001906001019080831161057c575b5050505050815250509050919050565b6105bb306105b56105b084610262565b611321565b3361133e565b60046040518060c001604052808681526020018581526020018481526020016105e384611321565b81526020013373ffffffffffffffffffffffffffffffffffffffff168152602001600260009054906101000a900473ffffffffffffffffffffffffffffffffffffffff1673ffffffffffffffffffffffffffffffffffffffff1681525090806001815401808255809150506001900390600052602060002090600602016000909190919091506000820151816000019080519060200190610685929190611615565b5060208201518160010190805190602001906106a2929190611615565b5060408201518160020190805190602001906106bf929190611615565b506060820151816003015560808201518160040160006101000a81548173ffffffffffffffffffffffffffffffffffffffff021916908373ffffffffffffffffffffffffffffffffffffffff16021790555060a08201518160050160006101000a81548173ffffffffffffffffffffffffffffffffffffffff021916908373ffffffffffffffffffffffffffffffffffffffff16021790555050503373ffffffffffffffffffffffffffffffffffffffff167f71e4d22df116fdc915c131ee73a1b2033055d24fda3387bc49fed0c5f15a51eb8561079c84611321565b6040516107aa929190611fe0565b60405180910390a250505050565b6000600482815481106107f4577f4e487b7100000000000000000000000000000000000000000000000000000000600052603260045260246000fd5b906000526020600020906006020190508060040160009054906101000a900473ffffffffffffffffffffffffffffffffffffffff1673ffffffffffffffffffffffffffffffffffffffff163373ffffffffffffffffffffffffffffffffffffffff161415610897576040517f08c379a000000000000000000000000000000000000000000000000000000000815260040161088e90612010565b60405180910390fd5b6108ca8160040160009054906101000a900473ffffffffffffffffffffffffffffffffffffffff1682600301543361133e565b6000600560003373ffffffffffffffffffffffffffffffffffffffff1673ffffffffffffffffffffffffffffffffffffffff1681526020019081526020016000209050600181600301600082825461092291906121ef565b9250508190555080600401839080600181540180825580915050600190039060005260206000200160009091909190915055338260050160006101000a81548173ffffffffffffffffffffffffffffffffffffffff021916908373ffffffffffffffffffffffffffffffffffffffff1602179055503373ffffffffffffffffffffffffffffffffffffffff167f96ed2ea4d67ab6369f0e0da43454549a60ae55af2704de2bdc1cdc0221af01e88360040160009054906101000a900473ffffffffffffffffffffffffffffffffffffffff168460030154604051610a07929190611f42565b60405180910390a2505050565b60008054906101000a900473ffffffffffffffffffffffffffffffffffffffff1681565b600260009054906101000a900473ffffffffffffffffffffffffffffffffffffffff1673ffffffffffffffffffffffffffffffffffffffff163373ffffffffffffffffffffffffffffffffffffffff161415610a9357600080fd5b600060048381548110610acf577f4e487b7100000000000000000000000000000000000000000000000000000000600052603260045260246000fd5b906000526020600020906006020190508060040160009054906101000a900473ffffffffffffffffffffffffffffffffffffffff1673ffffffffffffffffffffffffffffffffffffffff163373ffffffffffffffffffffffffffffffffffffffff1614610b3b57600080fd5b600260009054906101000a900473ffffffffffffffffffffffffffffffffffffffff1673ffffffffffffffffffffffffffffffffffffffff168160050160009054906101000a900473ffffffffffffffffffffffffffffffffffffffff1673ffffffffffffffffffffffffffffffffffffffff1614610bb957600080fd5b610bc282611321565b8160030181905550505050565b6005602052806000526040600020600091509050806000018054610bf29061235a565b80601f0160208091040260200160405190810160405280929190818152602001828054610c1e9061235a565b8015610c6b5780601f10610c4057610100808354040283529160200191610c6b565b820191906000526020600020905b815481529060010190602001808311610c4e57829003601f168201915b505050505090806001018054610c809061235a565b80601f0160208091040260200160405190810160405280929190818152602001828054610cac9061235a565b8015610cf95780601f10610cce57610100808354040283529160200191610cf9565b820191906000526020600020905b815481529060010190602001808311610cdc57829003601f168201915b5050505050908060020160009054906101000a900460ff16908060030154905084565b610d246116cc565b60048281548110610d5e577f4e487b7100000000000000000000000000000000000000000000000000000000600052603260045260246000fd5b90600052602060002090600602016040518060c0016040529081600082018054610d879061235a565b80601f0160208091040260200160405190810160405280929190818152602001828054610db39061235a565b8015610e005780601f10610dd557610100808354040283529160200191610e00565b820191906000526020600020905b815481529060010190602001808311610de357829003601f168201915b50505050508152602001600182018054610e199061235a565b80601f0160208091040260200160405190810160405280929190818152602001828054610e459061235a565b8015610e925780601f10610e6757610100808354040283529160200191610e92565b820191906000526020600020905b815481529060010190602001808311610e7557829003601f168201915b50505050508152602001600282018054610eab9061235a565b80601f0160208091040260200160405190810160405280929190818152602001828054610ed79061235a565b8015610f245780601f10610ef957610100808354040283529160200191610f24565b820191906000526020600020905b815481529060010190602001808311610f0757829003601f168201915b50505050508152602001600382015481526020016004820160009054906101000a900473ffffffffffffffffffffffffffffffffffffffff1673ffffffffffffffffffffffffffffffffffffffff1673ffffffffffffffffffffffffffffffffffffffff1681526020016005820160009054906101000a900473ffffffffffffffffffffffffffffffffffffffff1673ffffffffffffffffffffffffffffffffffffffff1673ffffffffffffffffffffffffffffffffffffffff16815250509050919050565b6000600654905090565b60606004805480602002602001604051908101604052809291908181526020016000905b828210156112b657838290600052602060002090600602016040518060c001604052908160008201805461104b9061235a565b80601f01602080910402602001604051908101604052809291908181526020018280546110779061235a565b80156110c45780601f10611099576101008083540402835291602001916110c4565b820191906000526020600020905b8154815290600101906020018083116110a757829003601f168201915b505050505081526020016001820180546110dd9061235a565b80601f01602080910402602001604051908101604052809291908181526020018280546111099061235a565b80156111565780601f1061112b57610100808354040283529160200191611156565b820191906000526020600020905b81548152906001019060200180831161113957829003601f168201915b5050505050815260200160028201805461116f9061235a565b80601f016020809104026020016040519081016040528092919081815260200182805461119b9061235a565b80156111e85780601f106111bd576101008083540402835291602001916111e8565b820191906000526020600020905b8154815290600101906020018083116111cb57829003601f168201915b50505050508152602001600382015481526020016004820160009054906101000a900473ffffffffffffffffffffffffffffffffffffffff1673ffffffffffffffffffffffffffffffffffffffff1673ffffffffffffffffffffffffffffffffffffffff1681526020016005820160009054906101000a900473ffffffffffffffffffffffffffffffffffffffff1673ffffffffffffffffffffffffffffffffffffffff1673ffffffffffffffffffffffffffffffffffffffff168152505081526020019060010190611018565b50505050905090565b60008054906101000a900473ffffffffffffffffffffffffffffffffffffffff1673ffffffffffffffffffffffffffffffffffffffff163373ffffffffffffffffffffffffffffffffffffffff161461131757600080fd5b8060018190555050565b6000670de0b6b3a7640000826113379190612276565b9050919050565b600360009054906101000a900473ffffffffffffffffffffffffffffffffffffffff1673ffffffffffffffffffffffffffffffffffffffff166370a08231826040518263ffffffff1660e01b81526004016113999190611ec7565b60206040518083038186803b1580156113b157600080fd5b505afa1580156113c5573d6000803e3d6000fd5b505050506040513d601f19601f820116820180604052508101906113e99190611999565b82111561142b576040517f08c379a000000000000000000000000000000000000000000000000000000000815260040161142290612030565b60405180910390fd5b81600360009054906101000a900473ffffffffffffffffffffffffffffffffffffffff1673ffffffffffffffffffffffffffffffffffffffff1663dd62ed3e83306040518363ffffffff1660e01b8152600401611489929190611ee2565b60206040518083038186803b1580156114a157600080fd5b505afa1580156114b5573d6000803e3d6000fd5b505050506040513d601f19601f820116820180604052508101906114d99190611999565b101561151a576040517f08c379a000000000000000000000000000000000000000000000000000000000815260040161151190612050565b60405180910390fd5b6000600360009054906101000a900473ffffffffffffffffffffffffffffffffffffffff1673ffffffffffffffffffffffffffffffffffffffff166323b872dd8386866040518463ffffffff1660e01b815260040161157b93929190611f0b565b602060405180830381600087803b15801561159557600080fd5b505af11580156115a9573d6000803e3d6000fd5b505050506040513d601f19601f820116820180604052508101906115cd9190611830565b90508061160f576040517f08c379a000000000000000000000000000000000000000000000000000000000815260040161160690612070565b60405180910390fd5b50505050565b8280546116219061235a565b90600052602060002090601f016020900481019282611643576000855561168a565b82601f1061165c57805160ff191683800117855561168a565b8280016001018555821561168a579182015b8281111561168957825182559160200191906001019061166e565b5b509050611697919061172e565b5090565b6040518060a00160405280606081526020016060815260200160001515815260200160008152602001606081525090565b6040518060c0016040528060608152602001606081526020016060815260200160008152602001600073ffffffffffffffffffffffffffffffffffffffff168152602001600073ffffffffffffffffffffffffffffffffffffffff1681525090565b5b8082111561174757600081600090555060010161172f565b5090565b600061175e61175984612120565b6120ef565b90508281526020810184848401111561177657600080fd5b611781848285612318565b509392505050565b600081359050611798816124a2565b92915050565b6000815190506117ad816124b9565b92915050565b600082601f8301126117c457600080fd5b81356117d484826020860161174b565b91505092915050565b6000813590506117ec816124d0565b92915050565b600081519050611801816124d0565b92915050565b60006020828403121561181957600080fd5b600061182784828501611789565b91505092915050565b60006020828403121561184257600080fd5b60006118508482850161179e565b91505092915050565b6000806040838503121561186c57600080fd5b600083013567ffffffffffffffff81111561188657600080fd5b611892858286016117b3565b925050602083013567ffffffffffffffff8111156118af57600080fd5b6118bb858286016117b3565b9150509250929050565b600080600080608085870312156118db57600080fd5b600085013567ffffffffffffffff8111156118f557600080fd5b611901878288016117b3565b945050602085013567ffffffffffffffff81111561191e57600080fd5b61192a878288016117b3565b935050604085013567ffffffffffffffff81111561194757600080fd5b611953878288016117b3565b9250506060611964878288016117dd565b91505092959194509250565b60006020828403121561198257600080fd5b6000611990848285016117dd565b91505092915050565b6000602082840312156119ab57600080fd5b60006119b9848285016117f2565b91505092915050565b600080604083850312156119d557600080fd5b60006119e3858286016117dd565b92505060206119f4858286016117dd565b9150509250929050565b6000611a0a8383611cf7565b905092915050565b6000611a1e8383611ea9565b60208301905092915050565b611a33816122d0565b82525050565b611a42816122d0565b82525050565b6000611a5382612170565b611a5d81856121ab565b935083602082028501611a6f85612150565b8060005b85811015611aab5784840389528151611a8c85826119fe565b9450611a9783612191565b925060208a01995050600181019050611a73565b50829750879550505050505092915050565b6000611ac88261217b565b611ad281856121bc565b9350611add83612160565b8060005b83811015611b0e578151611af58882611a12565b9750611b008361219e565b925050600181019050611ae1565b5085935050505092915050565b611b24816122e2565b82525050565b611b33816122e2565b82525050565b6000611b4482612186565b611b4e81856121cd565b9350611b5e818560208601612327565b611b6781612491565b840191505092915050565b6000611b7d82612186565b611b8781856121de565b9350611b97818560208601612327565b611ba081612491565b840191505092915050565b6000611bb86020836121de565b91507f596f752063616e6e6f742062757920796f7572206f776e2070726f64756374736000830152602082019050919050565b6000611bf86022836121de565b91507f496e7375666963656e7420746f6b656e7320746f206d616b65207472616e736660008301527f65720000000000000000000000000000000000000000000000000000000000006020830152604082019050919050565b6000611c5e6024836121de565b91507f496e7375666963656e7420616c6c6f77656e636520746f206d616b652072657360008301527f65727665000000000000000000000000000000000000000000000000000000006020830152604082019050919050565b6000611cc46008836121de565b91507f4e6f742073656e740000000000000000000000000000000000000000000000006000830152602082019050919050565b600060c0830160008301518482036000860152611d148282611b39565b91505060208301518482036020860152611d2e8282611b39565b91505060408301518482036040860152611d488282611b39565b9150506060830151611d5d6060860182611ea9565b506080830151611d706080860182611a2a565b5060a0830151611d8360a0860182611a2a565b508091505092915050565b600060c0830160008301518482036000860152611dab8282611b39565b91505060208301518482036020860152611dc58282611b39565b91505060408301518482036040860152611ddf8282611b39565b9150506060830151611df46060860182611ea9565b506080830151611e076080860182611a2a565b5060a0830151611e1a60a0860182611a2a565b508091505092915050565b600060a0830160008301518482036000860152611e428282611b39565b91505060208301518482036020860152611e5c8282611b39565b9150506040830151611e716040860182611b1b565b506060830151611e846060860182611ea9565b5060808301518482036080860152611e9c8282611abd565b9150508091505092915050565b611eb28161230e565b82525050565b611ec18161230e565b82525050565b6000602082019050611edc6000830184611a39565b92915050565b6000604082019050611ef76000830185611a39565b611f046020830184611a39565b9392505050565b6000606082019050611f206000830186611a39565b611f2d6020830185611a39565b611f3a6040830184611eb8565b949350505050565b6000604082019050611f576000830185611a39565b611f646020830184611eb8565b9392505050565b60006020820190508181036000830152611f858184611a48565b905092915050565b60006080820190508181036000830152611fa78187611b72565b90508181036020830152611fbb8186611b72565b9050611fca6040830185611b2a565b611fd76060830184611eb8565b95945050505050565b60006040820190508181036000830152611ffa8185611b72565b90506120096020830184611eb8565b9392505050565b6000602082019050818103600083015261202981611bab565b9050919050565b6000602082019050818103600083015261204981611beb565b9050919050565b6000602082019050818103600083015261206981611c51565b9050919050565b6000602082019050818103600083015261208981611cb7565b9050919050565b600060208201905081810360008301526120aa8184611d8e565b905092915050565b600060208201905081810360008301526120cc8184611e25565b905092915050565b60006020820190506120e96000830184611eb8565b92915050565b6000604051905081810181811067ffffffffffffffff8211171561211657612115612462565b5b8060405250919050565b600067ffffffffffffffff82111561213b5761213a612462565b5b601f19601f8301169050602081019050919050565b6000819050602082019050919050565b6000819050602082019050919050565b600081519050919050565b600081519050919050565b600081519050919050565b6000602082019050919050565b6000602082019050919050565b600082825260208201905092915050565b600082825260208201905092915050565b600082825260208201905092915050565b600082825260208201905092915050565b60006121fa8261230e565b91506122058361230e565b9250827fffffffffffffffffffffffffffffffffffffffffffffffffffffffffffffffff0382111561223a576122396123d5565b5b828201905092915050565b60006122508261230e565b915061225b8361230e565b92508261226b5761226a612404565b5b828204905092915050565b60006122818261230e565b915061228c8361230e565b9250817fffffffffffffffffffffffffffffffffffffffffffffffffffffffffffffffff04831182151516156122c5576122c46123d5565b5b828202905092915050565b60006122db826122ee565b9050919050565b60008115159050919050565b600073ffffffffffffffffffffffffffffffffffffffff82169050919050565b6000819050919050565b82818337600083830152505050565b60005b8381101561234557808201518184015260208101905061232a565b83811115612354576000848401525b50505050565b6000600282049050600182168061237257607f821691505b6020821081141561238657612385612433565b5b50919050565b60006123978261230e565b91507fffffffffffffffffffffffffffffffffffffffffffffffffffffffffffffffff8214156123ca576123c96123d5565b5b600182019050919050565b7f4e487b7100000000000000000000000000000000000000000000000000000000600052601160045260246000fd5b7f4e487b7100000000000000000000000000000000000000000000000000000000600052601260045260246000fd5b7f4e487b7100000000000000000000000000000000000000000000000000000000600052602260045260246000fd5b7f4e487b7100000000000000000000000000000000000000000000000000000000600052604160045260246000fd5b6000601f19601f8301169050919050565b6124ab816122d0565b81146124b657600080fd5b50565b6124c2816122e2565b81146124cd57600080fd5b50565b6124d98161230e565b81146124e457600080fd5b5056fea264697066735822122030bb1f430ad7dada6373136c0a53b2c2f142023b7627fa71a539799843910c4c64736f6c63430008000033",
  "immutableReferences": {},
  "source": "// SPDX-License-Identifier: MIT\r\npragma solidity ^0.8.0; \r\n\r\nimport \"@openzeppelin/contracts/token/ERC20/IERC20.sol\";\r\n\r\ncontract DigiEx {\r\n    address public  owner;\r\n    uint private secureAddPercent = 5;\r\n    address private noOne = address(0);\r\n    IERC20 private token;\r\n\r\n    struct User {\r\n        string name;\r\n        string contact;\r\n        bool updated;\r\n        uint total_products;\r\n        uint [] products;\r\n    }\r\n    \r\n    struct Product {\r\n        string name;\r\n        string desc;\r\n        string section;\r\n        uint price;\r\n        address owner;\r\n        address reserved_by;\r\n\r\n    }\r\n\r\n    Product[] private products;\r\n    mapping(address => User) public users;\r\n\r\n    uint private _totalUsers;\r\n\r\n    event ProductPurchased(address indexed user,address owner,uint price);\r\n    event ProductAdded(address indexed owner,string name,uint price);\r\n\r\n\r\n    constructor(address _token){\r\n        owner = msg.sender;\r\n        token = IERC20(_token);\r\n        _totalUsers = 0;\r\n    }\r\n\r\n    function setSecureAddPercent(uint percent) public isOwner{\r\n        secureAddPercent = percent;\r\n    }\r\n\r\n    function getSecureAddPercent() private isOwner view returns(uint){\r\n        return secureAddPercent;\r\n    }\r\n\r\n     function __percentValue(uint _amount) public view returns(uint){\r\n        return (secureAddPercent * _amount) / 100;\r\n    }\r\n\r\n    function __amount(uint _amount) private pure returns(uint){\r\n        return _amount * (10 ** 18);\r\n    }\r\n\r\n    function addProduct(string memory name,\r\n                        string memory desc,\r\n                        string memory section,uint price)public{\r\n\r\n        transferTokens(address(this),  __amount(__percentValue(price)),msg.sender);\r\n\r\n        products.push(Product(name, desc, section, __amount(price), msg.sender, noOne));\r\n        emit ProductAdded(msg.sender, name, __amount(price));\r\n\r\n    }\r\n\r\n    function transferTokens(address _owner, uint _price, address _buyer) private {\r\n        require(_price <= token.balanceOf(_buyer), 'Insuficent tokens to make transfer');\r\n        require(token.allowance(_buyer, address(this)) >= _price, 'Insuficent allowence to make reserve');\r\n\r\n        bool sent = token.transferFrom(_buyer, _owner, _price);\r\n        require(sent, 'Not sent');\r\n    }\r\n\r\n    function updateProductPrice(uint product_id, uint price) external {\r\n        require(msg.sender != noOne);\r\n        Product storage product = products[product_id];\r\n        require(msg.sender == product.owner);\r\n        require(product.reserved_by == noOne);\r\n        product.price = __amount(price);\r\n    }\r\n\r\n     function updateUserContact(string memory contact,string memory name) public {\r\n        require(msg.sender != noOne);\r\n        User storage user = users[msg.sender];\r\n        user.contact = contact;\r\n        user.name = name;\r\n\r\n        if(!user.updated)\r\n            _totalUsers++;\r\n\r\n        user.updated = true;\r\n    }\r\n\r\n    function buyProduct(uint product_id) external { \r\n        Product storage product = products[product_id];\r\n        require(msg.sender != product.owner, 'You cannot buy your own products');\r\n        transferTokens(product.owner, product.price, msg.sender);\r\n        User storage buyer = users[msg.sender];\r\n        buyer.total_products += 1;\r\n        buyer.products.push(product_id);\r\n        product.reserved_by = msg.sender;\r\n\r\n        emit ProductPurchased(msg.sender, product.owner, product.price);\r\n    }\r\n\r\n    function totalUsers() external view returns (uint){\r\n        return _totalUsers;\r\n    }\r\n\r\n    function getProducts() external view returns(Product[] memory){\r\n      return products;\r\n    }\r\n\r\n    function getProduct(uint product_id) external view returns(Product memory){\r\n      return products[product_id];\r\n    }\r\n\r\n    function getUser(address userAddress) external view returns(User memory){\r\n      return users[userAddress];\r\n    }\r\n\r\n    modifier isOwner(){\r\n        require(msg.sender == owner);\r\n        _;\r\n    }\r\n}",
  "sourcePath": "C:\\Users\\PC SISTEMAS\\Downloads\\dapps\\appDgx\\contracts\\DigiEx.sol",
  "compiler": {
    "name": "solc",
    "version": "0.8.0+commit.c7dfd78e.Emscripten.clang"
  },
  "schemaVersion": "3.4.10",
  "updatedAt": "2022-09-29T22:12:32.671Z",
  "networkType": "ethereum",
  "devdoc": {
    "kind": "dev",
    "methods": {},
    "version": 1
  },
  "userdoc": {
    "kind": "user",
    "methods": {},
    "version": 1
  }
}