{
  "contractName": "DigiExTokenSale",
  "abi": [
    {
      "inputs": [
        {
          "internalType": "address",
          "name": "_token",
          "type": "address"
        }
      ],
      "stateMutability": "nonpayable",
      "type": "constructor"
    },
    {
      "anonymous": false,
      "inputs": [
        {
          "indexed": false,
          "internalType": "address",
          "name": "_buyer",
          "type": "address"
        },
        {
          "indexed": false,
          "internalType": "uint256",
          "name": "_amount",
          "type": "uint256"
        }
      ],
      "name": "Sell",
      "type": "event"
    },
    {
      "inputs": [],
      "name": "owner",
      "outputs": [
        {
          "internalType": "address",
          "name": "",
          "type": "address"
        }
      ],
      "stateMutability": "view",
      "type": "function",
      "constant": true
    },
    {
      "inputs": [
        {
          "internalType": "uint256",
          "name": "tokens",
          "type": "uint256"
        }
      ],
      "name": "buy",
      "outputs": [],
      "stateMutability": "payable",
      "type": "function",
      "payable": true
    },
    {
      "inputs": [],
      "name": "__tokens",
      "outputs": [
        {
          "internalType": "uint256",
          "name": "",
          "type": "uint256"
        }
      ],
      "stateMutability": "view",
      "type": "function",
      "constant": true
    },
    {
      "inputs": [],
      "name": "__tokenPrice",
      "outputs": [
        {
          "internalType": "uint256",
          "name": "",
          "type": "uint256"
        }
      ],
      "stateMutability": "view",
      "type": "function",
      "constant": true
    },
    {
      "inputs": [
        {
          "internalType": "uint256",
          "name": "phase_id",
          "type": "uint256"
        }
      ],
      "name": "phase",
      "outputs": [
        {
          "components": [
            {
              "internalType": "uint256",
              "name": "total",
              "type": "uint256"
            },
            {
              "internalType": "uint256",
              "name": "price",
              "type": "uint256"
            },
            {
              "internalType": "uint256",
              "name": "phase",
              "type": "uint256"
            }
          ],
          "internalType": "struct DigiExTokenSale.Phase",
          "name": "",
          "type": "tuple"
        }
      ],
      "stateMutability": "view",
      "type": "function",
      "constant": true
    },
    {
      "inputs": [],
      "name": "endSale",
      "outputs": [],
      "stateMutability": "nonpayable",
      "type": "function"
    },
    {
      "inputs": [],
      "name": "tokensSold",
      "outputs": [
        {
          "internalType": "uint256",
          "name": "",
          "type": "uint256"
        }
      ],
      "stateMutability": "view",
      "type": "function",
      "constant": true
    },
    {
      "inputs": [],
      "name": "totalTokens",
      "outputs": [
        {
          "internalType": "uint256",
          "name": "",
          "type": "uint256"
        }
      ],
      "stateMutability": "view",
      "type": "function",
      "constant": true
    },
    {
      "inputs": [],
      "name": "__phases",
      "outputs": [
        {
          "components": [
            {
              "internalType": "uint256",
              "name": "total",
              "type": "uint256"
            },
            {
              "internalType": "uint256",
              "name": "price",
              "type": "uint256"
            },
            {
              "internalType": "uint256",
              "name": "phase",
              "type": "uint256"
            }
          ],
          "internalType": "struct DigiExTokenSale.Phase[]",
          "name": "",
          "type": "tuple[]"
        }
      ],
      "stateMutability": "view",
      "type": "function",
      "constant": true
    },
    {
      "inputs": [],
      "name": "currentPhase",
      "outputs": [
        {
          "components": [
            {
              "internalType": "uint256",
              "name": "total",
              "type": "uint256"
            },
            {
              "internalType": "uint256",
              "name": "price",
              "type": "uint256"
            },
            {
              "internalType": "uint256",
              "name": "phase",
              "type": "uint256"
            }
          ],
          "internalType": "struct DigiExTokenSale.Phase",
          "name": "",
          "type": "tuple"
        }
      ],
      "stateMutability": "view",
      "type": "function",
      "constant": true
    },
    {
      "inputs": [],
      "name": "__isOwner",
      "outputs": [
        {
          "internalType": "bool",
          "name": "",
          "type": "bool"
        }
      ],
      "stateMutability": "view",
      "type": "function",
      "constant": true
    }
  ],
  "bytecode": "0x60806040526000600460006101000a81548173ffffffffffffffffffffffffffffffffffffffff021916908373ffffffffffffffffffffffffffffffffffffffff1602179055503480156200005357600080fd5b50604051620016f8380380620016f883398181016040528101906200007991906200020c565b336000806101000a81548173ffffffffffffffffffffffffffffffffffffffff021916908373ffffffffffffffffffffffffffffffffffffffff16021790555080600560006101000a81548173ffffffffffffffffffffffffffffffffffffffff021916908373ffffffffffffffffffffffffffffffffffffffff16021790555065246139ca8000600181905550600060068190555060006002819055506200012b6207a120620001d660201b60201c565b6003819055506000600190505b600a8111620001ce576007604051806060016040528061c35081526020016001548462000166919062000238565b815260200183815250908060018154018082558091505060019003906000526020600020906003020160009091909190915060008201518160000155602082015181600101556040820151816002015550508080620001c590620002d7565b91505062000138565b50506200036e565b6000670de0b6b3a764000082620001ee919062000238565b9050919050565b600081519050620002068162000354565b92915050565b6000602082840312156200021f57600080fd5b60006200022f84828501620001f5565b91505092915050565b60006200024582620002cd565b91506200025283620002cd565b9250817fffffffffffffffffffffffffffffffffffffffffffffffffffffffffffffffff04831182151516156200028e576200028d62000325565b5b828202905092915050565b6000620002a682620002ad565b9050919050565b600073ffffffffffffffffffffffffffffffffffffffff82169050919050565b6000819050919050565b6000620002e482620002cd565b91507fffffffffffffffffffffffffffffffffffffffffffffffffffffffffffffffff8214156200031a576200031962000325565b5b600182019050919050565b7f4e487b7100000000000000000000000000000000000000000000000000000000600052601160045260246000fd5b6200035f8162000299565b81146200036b57600080fd5b50565b61137a806200037e6000396000f3fe60806040526004361061009c5760003560e01c80637e1c0c09116100645780637e1c0c09146101765780638da5cb5b146101a15780639dedf2e6146101cc578063d51cfd2f146101f7578063d96a094a14610222578063e05091511461023e5761009c565b8063055ad42e146100a1578063135f8aa7146100cc578063380d831b14610109578063518ab2a81461012057806361fd6b721461014b575b600080fd5b3480156100ad57600080fd5b506100b6610269565b6040516100c39190610f14565b60405180910390f35b3480156100d857600080fd5b506100f360048036038101906100ee9190610beb565b610281565b6040516101009190610f14565b60405180910390f35b34801561011557600080fd5b5061011e610301565b005b34801561012c57600080fd5b50610135610544565b6040516101429190610f2f565b60405180910390f35b34801561015757600080fd5b5061016061054e565b60405161016d9190610e77565b60405180910390f35b34801561018257600080fd5b5061018b6105cb565b6040516101989190610f2f565b60405180910390f35b3480156101ad57600080fd5b506101b661067c565b6040516101c39190610e33565b60405180910390f35b3480156101d857600080fd5b506101e16106a0565b6040516101ee9190610f2f565b60405180910390f35b34801561020357600080fd5b5061020c6106aa565b6040516102199190610e99565b60405180910390f35b61023c60048036038101906102379190610beb565b610701565b005b34801561024a57600080fd5b50610253610a67565b6040516102609190610f2f565b60405180910390f35b610271610b62565b61027c600654610281565b905090565b610289610b62565b600782815481106102c3577f4e487b7100000000000000000000000000000000000000000000000000000000600052603260045260246000fd5b906000526020600020906003020160405180606001604052908160008201548152602001600182015481526020016002820154815250509050919050565b60008054906101000a900473ffffffffffffffffffffffffffffffffffffffff1673ffffffffffffffffffffffffffffffffffffffff163373ffffffffffffffffffffffffffffffffffffffff161461035957600080fd5b600560009054906101000a900473ffffffffffffffffffffffffffffffffffffffff1673ffffffffffffffffffffffffffffffffffffffff1663a9059cbb60008054906101000a900473ffffffffffffffffffffffffffffffffffffffff16600560009054906101000a900473ffffffffffffffffffffffffffffffffffffffff1673ffffffffffffffffffffffffffffffffffffffff166370a08231306040518263ffffffff1660e01b81526004016104139190610e33565b60206040518083038186803b15801561042b57600080fd5b505afa15801561043f573d6000803e3d6000fd5b505050506040513d601f19601f820116820180604052508101906104639190610c14565b6040518363ffffffff1660e01b8152600401610480929190610e4e565b602060405180830381600087803b15801561049a57600080fd5b505af11580156104ae573d6000803e3d6000fd5b505050506040513d601f19601f820116820180604052508101906104d29190610bc2565b6104db57600080fd5b60008054906101000a900473ffffffffffffffffffffffffffffffffffffffff1673ffffffffffffffffffffffffffffffffffffffff166108fc479081150290604051600060405180830381858888f19350505050158015610541573d6000803e3d6000fd5b50565b6000600254905090565b60606007805480602002602001604051908101604052809291908181526020016000905b828210156105c25783829060005260206000209060030201604051806060016040529081600082015481526020016001820154815260200160028201548152505081526020019060010190610572565b50505050905090565b6000610677600560009054906101000a900473ffffffffffffffffffffffffffffffffffffffff1673ffffffffffffffffffffffffffffffffffffffff166318160ddd6040518163ffffffff1660e01b815260040160206040518083038186803b15801561063857600080fd5b505afa15801561064c573d6000803e3d6000fd5b505050506040513d601f19601f820116820180604052508101906106709190610c14565b6012610b23565b905090565b60008054906101000a900473ffffffffffffffffffffffffffffffffffffffff1681565b6000600154905090565b60008060009054906101000a900473ffffffffffffffffffffffffffffffffffffffff1673ffffffffffffffffffffffffffffffffffffffff163373ffffffffffffffffffffffffffffffffffffffff1614905090565b8061070d600654610281565b602001513461071c9190610fea565b1461075c576040517f08c379a000000000000000000000000000000000000000000000000000000000815260040161075390610ef4565b60405180910390fd5b61076581610b45565b610770600654610281565b6000015111156107b5576040517f08c379a00000000000000000000000000000000000000000000000000000000081526004016107ac90610eb4565b60405180910390fd5b6107be81610b45565b600560009054906101000a900473ffffffffffffffffffffffffffffffffffffffff1673ffffffffffffffffffffffffffffffffffffffff166370a08231306040518263ffffffff1660e01b81526004016108199190610e33565b60206040518083038186803b15801561083157600080fd5b505afa158015610845573d6000803e3d6000fd5b505050506040513d601f19601f820116820180604052508101906108699190610c14565b10156108aa576040517f08c379a00000000000000000000000000000000000000000000000000000000081526004016108a190610ed4565b60405180910390fd5b600560009054906101000a900473ffffffffffffffffffffffffffffffffffffffff1673ffffffffffffffffffffffffffffffffffffffff1663a9059cbb336108f284610b45565b6040518363ffffffff1660e01b815260040161090f929190610e4e565b602060405180830381600087803b15801561092957600080fd5b505af115801561093d573d6000803e3d6000fd5b505050506040513d601f19601f820116820180604052508101906109619190610bc2565b61096a57600080fd5b806002600082825461097c9190610f94565b92505081905550806007600654815481106109c0577f4e487b7100000000000000000000000000000000000000000000000000000000600052603260045260246000fd5b906000526020600020906003020160000160008282546109e091906111e6565b9250508190555060006109f4600654610281565b6000015111610a165760066000815480929190610a1090611262565b91905055505b610a21600654610281565b602001516001819055507f5e5e995ce3133561afceaa51a9a154d5db228cd7525d34df5185582c18d3df093382604051610a5c929190610e4e565b60405180910390a150565b6000610b1e600560009054906101000a900473ffffffffffffffffffffffffffffffffffffffff1673ffffffffffffffffffffffffffffffffffffffff166370a08231336040518263ffffffff1660e01b8152600401610ac79190610e33565b60206040518083038186803b158015610adf57600080fd5b505afa158015610af3573d6000803e3d6000fd5b505050506040513d601f19601f82011682018060405250810190610b179190610c14565b6012610b23565b905090565b600081600a610b32919061106e565b83610b3d9190610fea565b905092915050565b6000670de0b6b3a764000082610b5b919061118c565b9050919050565b60405180606001604052806000815260200160008152602001600081525090565b600081519050610b9281611316565b92915050565b600081359050610ba78161132d565b92915050565b600081519050610bbc8161132d565b92915050565b600060208284031215610bd457600080fd5b6000610be284828501610b83565b91505092915050565b600060208284031215610bfd57600080fd5b6000610c0b84828501610b98565b91505092915050565b600060208284031215610c2657600080fd5b6000610c3484828501610bad565b91505092915050565b6000610c498383610d91565b60608301905092915050565b610c5e8161121a565b82525050565b6000610c6f82610f5a565b610c798185610f72565b9350610c8483610f4a565b8060005b83811015610cb5578151610c9c8882610c3d565b9750610ca783610f65565b925050600181019050610c88565b5085935050505092915050565b610ccb8161122c565b82525050565b6000610cde601183610f83565b91507f4572726f72206c6f772062616c616e63650000000000000000000000000000006000830152602082019050919050565b6000610d1e600883610f83565b91507f536f6c64206f75740000000000000000000000000000000000000000000000006000830152602082019050919050565b6000610d5e601583610f83565b91507f4572726f722076616c7565206e6f74206d6174636800000000000000000000006000830152602082019050919050565b606082016000820151610da76000850182610e15565b506020820151610dba6020850182610e15565b506040820151610dcd6040850182610e15565b50505050565b606082016000820151610de96000850182610e15565b506020820151610dfc6020850182610e15565b506040820151610e0f6040850182610e15565b50505050565b610e1e81611258565b82525050565b610e2d81611258565b82525050565b6000602082019050610e486000830184610c55565b92915050565b6000604082019050610e636000830185610c55565b610e706020830184610e24565b9392505050565b60006020820190508181036000830152610e918184610c64565b905092915050565b6000602082019050610eae6000830184610cc2565b92915050565b60006020820190508181036000830152610ecd81610cd1565b9050919050565b60006020820190508181036000830152610eed81610d11565b9050919050565b60006020820190508181036000830152610f0d81610d51565b9050919050565b6000606082019050610f296000830184610dd3565b92915050565b6000602082019050610f446000830184610e24565b92915050565b6000819050602082019050919050565b600081519050919050565b6000602082019050919050565b600082825260208201905092915050565b600082825260208201905092915050565b6000610f9f82611258565b9150610faa83611258565b9250827fffffffffffffffffffffffffffffffffffffffffffffffffffffffffffffffff03821115610fdf57610fde6112ab565b5b828201905092915050565b6000610ff582611258565b915061100083611258565b9250826110105761100f6112da565b5b828204905092915050565b6000808291508390505b600185111561106557808604811115611041576110406112ab565b5b60018516156110505780820291505b808102905061105e85611309565b9450611025565b94509492505050565b600061107982611258565b915061108483611258565b92506110b17fffffffffffffffffffffffffffffffffffffffffffffffffffffffffffffffff84846110b9565b905092915050565b6000826110c95760019050611185565b816110d75760009050611185565b81600181146110ed57600281146110f757611126565b6001915050611185565b60ff841115611109576111086112ab565b5b8360020a9150848211156111205761111f6112ab565b5b50611185565b5060208310610133831016604e8410600b841016171561115b5782820a905083811115611156576111556112ab565b5b611185565b611168848484600161101b565b9250905081840481111561117f5761117e6112ab565b5b81810290505b9392505050565b600061119782611258565b91506111a283611258565b9250817fffffffffffffffffffffffffffffffffffffffffffffffffffffffffffffffff04831182151516156111db576111da6112ab565b5b828202905092915050565b60006111f182611258565b91506111fc83611258565b92508282101561120f5761120e6112ab565b5b828203905092915050565b600061122582611238565b9050919050565b60008115159050919050565b600073ffffffffffffffffffffffffffffffffffffffff82169050919050565b6000819050919050565b600061126d82611258565b91507fffffffffffffffffffffffffffffffffffffffffffffffffffffffffffffffff8214156112a05761129f6112ab565b5b600182019050919050565b7f4e487b7100000000000000000000000000000000000000000000000000000000600052601160045260246000fd5b7f4e487b7100000000000000000000000000000000000000000000000000000000600052601260045260246000fd5b60008160011c9050919050565b61131f8161122c565b811461132a57600080fd5b50565b61133681611258565b811461134157600080fd5b5056fea264697066735822122057b4353810515943e625d1fa0630cd46754e5ccb3447d8113d92cae985afab6b64736f6c63430008000033",
  "immutableReferences": {},
  "source": "// SPDX-License-Identifier: MIT\r\npragma solidity ^0.8.0; \r\n\r\nimport \"@openzeppelin/contracts/token/ERC20/IERC20.sol\";\r\n\r\ncontract DigiExTokenSale{\r\n    address public owner;\r\n    uint private buyPrice;\r\n    uint private sold;\r\n    uint private toSold;\r\n    address private noOne = address(0);\r\n    IERC20 private token;\r\n    uint private currentPhaseIndex;\r\n\r\n    struct Phase {\r\n        uint total;\r\n        uint price;\r\n        uint phase;\r\n    }\r\n\r\n    Phase [] private phases;\r\n\r\n    event Sell(address _buyer, uint _amount);\r\n\r\n    constructor(address _token) {\r\n        owner = msg.sender;\r\n        token = IERC20(_token);\r\n        buyPrice = 0.00004 * 10**18;\r\n        currentPhaseIndex = 0;\r\n        sold = 0;\r\n        toSold = __amount(500000);\r\n\r\n        for(uint i=1; i<=10; i++){\r\n            phases.push(Phase(50000, i*buyPrice, i));\r\n        }\r\n    }\r\n\r\n    function buy (uint tokens)public payable{\r\n        require(msg.value / phase(currentPhaseIndex).price == tokens, 'Error value not match');\r\n        require(phase(currentPhaseIndex).total <= __amount(tokens), 'Error low balance');\r\n        require(token.balanceOf(address(this)) >= __amount(tokens), 'Sold out');\r\n        require(token.transfer( msg.sender, __amount(tokens)));\r\n\r\n        sold += tokens;\r\n        phases[currentPhaseIndex].total -= tokens;\r\n        if(phase(currentPhaseIndex).total <= 0)\r\n            currentPhaseIndex++;\r\n\r\n        buyPrice = phase(currentPhaseIndex).price;\r\n\r\n        emit Sell(msg.sender, tokens);\r\n    }\r\n\r\n    function __unAmount(uint256 _amount, uint decimals) private pure returns(uint){\r\n        return _amount / (10**decimals);\r\n    }\r\n    \r\n    function __tokens() external view returns(uint){\r\n        return __unAmount(token.balanceOf(msg.sender), 18);\r\n    }\r\n\r\n    function __tokenPrice() external view returns(uint){\r\n        return buyPrice;\r\n    }\r\n\r\n    function phase(uint phase_id)public view returns(Phase memory){\r\n        return phases[phase_id];\r\n    }\r\n\r\n    function endSale()public isOwner{\r\n       require(token.transfer(owner, token.balanceOf(address(this))));\r\n        payable(owner).transfer(address(this).balance);\r\n    }\r\n\r\n    function tokensSold() external view returns(uint){\r\n        return sold;\r\n    }\r\n\r\n    function totalTokens() external view returns(uint){\r\n        return __unAmount(token.totalSupply(), 18);\r\n    }\r\n\r\n     function __phases() external view returns(Phase [] memory) {\r\n        return phases;\r\n    }\r\n\r\n    function currentPhase() external view returns(Phase memory){\r\n        return phase(currentPhaseIndex);\r\n    }\r\n\r\n    function __isOwner() public view returns(bool){\r\n        return msg.sender == owner;\r\n    }\r\n\r\n    modifier isOwner(){\r\n        require(msg.sender == owner);\r\n        _;\r\n    }\r\n\r\n    function __amount(uint _amount) private pure returns(uint){\r\n        return _amount * (10 ** 18);\r\n    }\r\n\r\n   \r\n\r\n}",
  "sourcePath": "C:\\Users\\PC SISTEMAS\\Downloads\\dapps\\appDgx\\contracts\\DigiExTokenSale.sol",
  "compiler": {
    "name": "solc",
    "version": "0.8.0+commit.c7dfd78e.Emscripten.clang"
  },
  "schemaVersion": "3.4.10",
  "updatedAt": "2022-09-29T22:15:38.710Z",
  "networkType": "ethereum",
  "devdoc": {
    "kind": "dev",
    "methods": {},
    "version": 1
  },
  "userdoc": {
    "kind": "user",
    "methods": {},
    "version": 1
  }
}